:020000040800F2
:10000000180C0020ED010008252300089D1B0008A6
:100010001122000875180008CD3A00080000000001
:10002000000000000000000000000000552B000848
:10003000CD1800080000000055290008392E0008DE
:10004000070200080702000807020008070200086C
:10005000070200080702000807020008070200085C
:10006000070200080702000807020008070200084C
:10007000070200080702000807020008070200083C
:10008000070200080702000807020008070200082C
:10009000070200080702000807020008070200081C
:1000A000070200080702000807020008070200080C
:1000B00007020008DD3000080702000807020008F8
:1000C00007020008070200080702000807020008EC
:1000D000070200085D380008070200080702000850
:1000E00007020008070200080702000807020008CC
:1000F00007020008070200080702000807020008BC
:1001000007020008070200080702000807020008AB
:10011000070200080702000807020008070200089B
:10012000070200080702000807020008070200088B
:1001300000F002F800F04AF80AA090E8000C8244AF
:100140008344AAF10107DA4501D100F03FF8AFF28C
:10015000090EBAE80F0013F0010F18BFFB1A43F0A5
:10016000010318472095000040950000103A24BF75
:1001700078C878C1FAD8520724BF30C830C144BF0C
:1001800004680C607047000000230024002500264E
:10019000103A28BF78C1FBD8520728BF30C148BFEA
:1001A0000B607047662907F0A285642900F08480FF
:1001B000002070471FB500F0C9FC0400002000219A
:1001C00006F0B4FCE0601FBD10B510BD00F0EAFD04
:1001D0001146FFF7EFFF05F03AFA00F008FE03B40E
:1001E000FFF7F2FF03BC03F0F6FC0000094880476C
:1001F00009480047FEE7FEE7FEE7FEE7FEE7FEE709
:10020000FEE7FEE7FEE7FEE704480549054A064B20
:10021000704700003D2E000831010008180600203C
:10022000180C00201808002018080020704710B58E
:100230004C1084EA530404D54042C1F1000138BF98
:10024000491E1B4204D55242C3F1000338BF5B1E56
:1002500000F042F914F0804F04D04042C1F1000197
:1002600038BF491E14F0004F04D05242C3F10003BE
:1002700038BF5B1E10BD00000FB4044910B503AABF
:10028000029800F02FFC10BC5DF814FB98000020D1
:100290000FB41CB5074B06AA7B446946009005982D
:1002A00000F007FC0020694600F016FC1CBC5DF85D
:1002B00014FB00003D0800002DE9F0410646002433
:1002C00010687529314616A510D0AFF300800028BC
:1002D00002DA404213A507E031688A0701D512A56A
:1002E00002E0490704D511A5012401E0AFF3008025
:1002F00000210A2206F1240709E0B0FBF2FCB0FB62
:10030000F2F302FB1C00303078541846491C0028D8
:10031000F3D123462A463046BDE8F04100F05EB9ED
:10032000000000002D0000002B0000002000000055
:100330002DE9F05F894604464FF0000ADFF824B14A
:10034000FB44C0F820A02046E168884700287DD003
:10035000252806D0D4E901219047206A401C20625C
:10036000F1E700255F462046E168884720280646D9
:1003700007DB312E05D2B81910F8200C08B105435F
:10038000F1E7A80701D525F00405C4F81CA0002753
:10039000C4F818A02A2E09D0304603F015FC38B353
:1003A00004EB8708303EC8F8186019E059F8041BC0
:1003B000204604EB87029161E1688847012F0646D9
:1003C00018D1E069002820DA25F020051DE0D8F8D2
:1003D000180000EB800006EB40003038C8F8180029
:1003E0002046E1688847064603F0EEFB0028EED180
:1003F000012F0AD02E2E08D12046E16888477F1CA5
:100400000646022F45F02005C4DBA069002803DA68
:10041000404245F00105A061E80701D025F0100534
:10042000A6B1A6F14100192802D8203645F400658E
:100430004A463146204625604D46FFF7B3FE60B17F
:10044000012807D0ED1D25F0070000E007E000F1CE
:10045000080978E705F1040975E730467AE7206A6C
:10046000BDE8F09F5491000040EA010310B59B07DE
:100470000FD1042A0DD310C808C9121F9C42F8D00E
:1004800020BA19BA884201D9012010BD4FF0FF30BF
:1004900010BD1AB1D30703D0521C07E0002010BDD5
:1004A00010F8013B11F8014B1B1B07D110F8013B61
:1004B00011F8014B1B1B01D1921EF1D1184610BD42
:1004C00002F0FF0343EA032242EA024200F01EBBAD
:1004D000704770477047704753EA020C00F069801C
:1004E0002DE9F04B4FF00006002B1FBFB3FA83F548
:1004F00003FA05F424FA05F65E4012BF1643B2FA79
:1005000082F502FA05F4C5F120051EBF22FA05FCAA
:1005100044EA0C04203556EA044C4FEA144418BF50
:10052000641C4FF000084FF00009904271EB030C7F
:1005300039D3002919BFB1FA81F701FA07F6B0FAE9
:1005400080F700FA07F6C7F120071EBF20FA07FC64
:1005500046EA0C062037B6FBF4FCA7EB0507103F74
:1005600007F01F0BCBF120060CFA0BFB2CFA06F65A
:1005700044BFB3460026202FA4BF5E464FF0000BB9
:100580005BEA060C08BF4FF0010B19EB0B09ABFB44
:10059000027C48EB0608C01B06FB02CC0BFB03CC1D
:1005A00071EB0C01C1E70B46024641464846BDE8E7
:1005B000F08B13B54FF000004FF00001AFF3008057
:1005C000BDE81C40704710B500F0C4FA006810BDCB
:1005D00010B5044600F0BEFA046010BD2DE9F047E6
:1005E0000D4699469246044600F1240801688806A3
:1005F00004D5E06921F01001216000E00120A8424B
:1006000001DD471B00E00027A1697A1902EB090010
:10061000081AA0612078C00602D42046AFF30080FB
:10062000002608E0D4E901211AF806009047206A64
:10063000401C761C20624E45F4DB2078C0060AD5AB
:100640002046AFF3008006E0D4E901213020904736
:10065000206A401C2062381EA7F10107F4DC07E085
:10066000D4E9012118F805009047206A401C206257
:10067000281EA5F10105F3DC2046AFF300802078A9
:10068000000602D50220BDE8F0870120FBE7704795
:100690002DE9FF4F0C461E464FF0FF378BB0D2E9D5
:1006A0000001DDF860800A908A46C1F30A5505B959
:1006B0003D46002108464FF00000BAF1000F00F45B
:1006C000400005DA00EB80004FF4400101EA5000E1
:1006D0004FEA9059B9F1010F00DDB9460A9850EA86
:1006E0004A000ED044F61050A5F2FF3545432F14B2
:1006F000B8F1000F1ED07542291E1EDDC9F100029F
:100700001CE0B8F1010F4FF0000001D0302103E0F0
:10071000F24305E02154401CB042FBDB304600228E
:10072000002121540B99C1F80880C1E900200FB0C5
:10073000BDE8F08FBD1B6D1CDEE74A4600DA69425A
:1007400006A800F091FA06AB93E8070003AB83E834
:10075000070050460A9900F091FB8DE80700A0F5CC
:1007600000501F3800900398002D09DD42F21F0150
:100770004A46084403A90390684600F0F0FD08E0EB
:10078000A0F500504A461F3803A90390684600F0C0
:10079000FAFD8DE807000004000C03D04FF0FF3095
:1007A000410800E01046B8F1000F03D0002200928B
:1007B00015461EE0751E05D400F0D0F930326255A2
:1007C0006D1EF9D5B3460122084302D000227F1CDA
:1007D00004E02078302801D100227F1E002A0997EA
:1007E00086D01DE0112D07DA00F0B8F930326255DD
:1007F0006D1C50EA0102F5D1084302D00098C8B13F
:100800000EE00021681E05E0235C625C6354225404
:10081000401E491C8142F7DBAB46A81B401E0990D5
:10082000002004F80B000B98099AC0F80880C0E972
:10083000002B7CE711264FF0000859E72DE9F04F17
:1008400088460446D21D22F0070191B0D1E900018B
:10085000CDE90A0103F03CF902460B98C00F01D024
:100860002D2007E02068810701D52B2002E0202100
:1008700001EAC000032A099001D0072A05DB0346DC
:100880004146204600F0B0F90BE12078800601D502
:10089000E06900E00620B8F1650F814606D0B8F1A6
:1008A000660F18D0B8F1670F70D131E00020B9F1B0
:1008B000110F009001DB112301E009F101030AAAE5
:1008C00001A90CA8FFF7E4FEDDE90C70002609F190
:1008D0000105834647E001204B4600904FF000475A
:1008E0000AAA01A90CA8FFF7D3FEDDE90DB00C9907
:1008F0005D46002610B909F101000D18B9EB05009D
:1009000003D4C0F1FF3609F10105A5EB09002BE086
:10091000B9F1010F01DA4FF001090020B9F1110F0F
:100920000090484601DD112300E003460AAA01A910
:100930000CA8FFF7ADFEDDE90C704D46002683469E
:10094000207800070AD4AB4500DA5D4601A8012DE6
:1009500004DD411911F8011C302907D04F4502DA96
:1009600017F1040F04DA012082460FE06D1EEEE756
:10097000002F02DCED1B3E4403E0781CA84200DDA2
:100980007D1CB81B00F1010A4FF0004720780007DA
:1009900003D4AA4501DB4FF0FF3A0021B7F1004F25
:1009A0000DF143088DF8431024D002202B23002F93
:1009B00001DA7F422D230A21021EA0F1010000DC92
:1009C0005FB197FBF1FC97FBF1F201FB1C7C174632
:1009D0000CF1300C08F801CDEEE7A8F1010003702E
:1009E0002188090501D5452100E06521A0F1010814
:1009F00000F8011C09980FA9A1EB0807FF1D00B121
:100A00000120411901EBEA70A1693844081A401E1F
:100A1000A0612078C00602D42046AFF30080099878
:100A200028B1D4E901219047206A401C2062207837
:100A3000C00622D52046AFF300801EE0002E04DB66
:100A4000B34502DD01A8805D00E03020D4E901213A
:100A50009047206A401C2062761CAAF101005FEAE0
:100A6000000A0AD100F072F8C0680168405CD4E95D
:100A700001219047206A401C2062281EA5F1010533
:100A8000DCDC07E0D4E9012118F8010B9047206A6B
:100A9000401C2062381EA7F10107F3DC2046AFF3AB
:100AA0000080032011B043E601694A1C0261087806
:100AB000704700B58FB0CDE901310021059105499E
:100AC0007944CDE9031011466846FFF731FC0FB0B9
:100AD00000BD0000E5FFFFFF0A6802F8010B0A6095
:100AE00070470000074B70B50D467B44FFF7E1FFF0
:100AF0000446284600F026F910B14FF0FF3070BDD3
:100B0000204670BD9B4400004FF000020429C0F055
:100B1000128010F0030C00F01B81CCF1040CBCF12E
:100B2000020F18BF00F8012BA8BF20F8022BA1EB81
:100B30000C0100F00DB95FEAC17C24BF00F8012B65
:100B400000F8012B48BF00F8012B704700487047A0
:100B5000D405002000487047B405002030B5B0F13E
:100B60000A024FEA900E71F100034EEA817EB0EB6B
:100B70000E0061EB91014FEA101E4EEA017E10EB70
:100B80000E0041EB11114FEA102E4EEA016E10EBF0
:100B90000E0041EB11214FEA104E4EEA014E10EBD0
:100BA0000E0041EB1141401841F100014FEAD00025
:100BB00040EA41704FEAD10110EB80054FEA810411
:100BC00044EA907444EB01046D1944EB0404521B95
:100BD000A3414FF0000348BF0A3200D530BD401C8E
:100BE00041F1000130BD00002DE9F0411F460446EF
:100BF00003260168072A01F4006004DB08B116A58A
:100C000005E016A503E008B115A500E015A521F043
:100C100010002060A069C01EA0610FB1401EA0613D
:100C20002046AFF300804FB1D4E901213846904708
:100C3000206A401C2062C01C206206E0206AFAE79D
:100C4000D4E9012115F8010B9047761EF8D2204611
:100C5000AFF30080BDE8F0814E414E006E616E0042
:100C6000494E4600696E66002DE9F04781461646FA
:100C70008AB0334878440DC88DE80D003048784478
:100C8000801C03AC0DC884E80D0041F69B3008447D
:100C9000372190FBF1F290FBF1F5A5F1800501FB06
:100CA00012041B3C02D56442012000E00020DFF862
:100CB00090A080460027FA44AAF1BE0A0DE0E007A2
:100CC00009D03246684607EB47010AEB810100F084
:100CD0005AFB8DE8070064107F1C002CEFD1184FE1
:100CE0007F44AC3F18E0E80714D007EB04100DF187
:100CF000180A90E80E008AE80E00C068F04201D1A0
:100D000098190890324606A903A800F03CFB03ABF3
:100D100083E807006D10641C002DE4D1324669465B
:100D2000B8F1000F03A802D000F019FB01E000F0B9
:100D30002AFBC9E90001C9F808200AB0BDE8F0871C
:100D4000A4890000007B00F0800070474FF0000293
:100D500000B5134694469646203922BFA0E80C50B1
:100D6000A0E80C50B1F12001BFF4F7AF090728BF8C
:100D7000A0E80C5048BF0CC05DF804EB890028BF08
:100D800040F8042B08BF704748BF20F8022B11F031
:100D9000804F18BF00F8012B7047000000487047D3
:100DA000B40500207546FFF7F9FFAE460500694619
:100DB000534620F00700854618B020B5FFF724FA07
:100DC000BDE820404FF000064FF000074FF000084C
:100DD0004FF0000B21F00701AC46ACE8C009ACE8CD
:100DE000C009ACE8C009ACE8C0098D4670470446AC
:100DF000AFF300802046FFF7F2F900004FF0013C0E
:100E000050F8042B51F8043B9A4221D1A2EB0C0379
:100E1000934313EACC1317D150F8042B51F8043B39
:100E20009A4215D1A2EB0C03934313EACC130BD1D6
:100E300050F8042B51F8043B9A4209D1A2EB0C0361
:100E4000934313EACC13DBD04FF00000704700BF90
:100E5000D01A01BAB1FA81F101F0180122FA01F0B9
:100E6000CB40C1F12001DBB2C0B2C01A2CFA01F3B1
:100E7000D11A914311EAC311E6D170475FEA400CE1
:100E800008BF91F0000F4FEA8C234FEAC12243EADA
:100E900051514FEA1C5018BF00F5F0404FEA3000A6
:100EA00018BF41F000415FEA6C5C00F02980BCF1A2
:100EB000FF3F08BF40F080407047130C06BF12048C
:100EC0004FF0100C4FF0000C130E04BF12020CF187
:100ED000080C130F04BF12010CF1040C930F04BF94
:100EE00092000CF1020CD30F04BF52000CF1010C64
:100EF00011464FF00002A0F11F00A0EB0C0070475C
:100F000011F0004F08BF704731F000413FF4D5AFFA
:100F10000B0C06BF09044FF0100C4FF0000C0B0E29
:100F200004BF09020CF1080C0B0F04BF09010CF1FE
:100F3000040C8B0F04BF89000CF1020CCB0F04BF13
:100F400049000CF1010CCCF12003A0EB0C0022FABB
:100F500003F302FA0CF241EA030100F101007047C9
:100F600020F07F4C80EA030023F07F47ACEB0703BF
:100F700003F57C5300F0004003F1FF032DE98049A5
:100F80004FEA154B09B44FEA144325EA0B4E24EA05
:100F900003480FF2042606EB132749083E785FEA60
:100FA000320203FB0667C7F5000707FB06F64FEAA8
:100FB00054374FEAD64606F1020607FB066CCCF121
:100FC000005C4FEA1C472CEA074C07FB06F40CFBBD
:100FD00006F504EB15464FEA961634BF00204FF095
:100FE00000404FEAD13706FB07FC4FEA1C4C0CFBD4
:100FF0000BF7D21B03FB0CF761EB07010CFB0EF7A1
:10100000B0EB074072EB17420CFB08F734BFA2EBC2
:101010000742B2EB074261EB17414FEA0C444FEA3B
:10102000910706FB07FC4FEA1C4C0CFB0BF7B0EBDF
:10103000C74072EB573203FB0CF734BFA2EBC74239
:10104000B2EBC74261EB57310CFB0EF7B0EBC700B8
:1010500072EB57720CFB08F734BFA2EBC702B2EB7E
:10106000C70261EB5771039F4FEA816141EA921118
:1010700004EBCC044FEAD1374FEA826206FB07FC4F
:1010800042EA90124FEA80604FEA1C4C0CFB0BF7CF
:10109000D21B03FB0CF761EB07010CFB0EF7B0EB67
:1010A000074072EB17420CFB08F734BFA2EB074274
:1010B000B2EB074261EB17414FEA8C554FEA9107BB
:1010C00004EB9C2406FB07FC4FEA1C4C0CFB0BF7C3
:1010D000B0EBC74072EB573203FB0CF734BFA2EB07
:1010E000C742B2EBC74261EB57310CFB0EF7B0EBD6
:1010F000C70072EB57720CFB08F734BFA2EBC702B4
:10110000B2EBC70261EB577115EB4C254FEA8161D9
:1011100041EA92114FEA82624FEAD13742EA9012D5
:1011200006FB07FC44F100044FEA80604FEA1C4CC8
:101130000CFB0BF7D21B03FB0CF761EB07010CFB5D
:101140000EF7B0EB074072EB17420CFB08F734BF09
:10115000A2EB0742B2EB074261EB174115EB1C15FE
:101160004FEA813141EA92414FEA823242EA9042AB
:101170004FEA80304FEA0C7644F1000448EA03431A
:101180004EEA0B484FF0000EB2EB080C71EB030770
:1011900024BF624639464EEB0E0E4FF0000B00188E
:1011A000524149414BEB0B0BB2EB080C71EB0307BF
:1011B0007BF1000B24BF624639464EEB0E0E4FF01A
:1011C000000B0018524149414BEB0B0BB2EB080CE2
:1011D00071EB03077BF1000B24BF624639464EEBEF
:1011E0000E0E51EA020718BF46F0010616EB0E7606
:1011F00055F1000254F1000103D5BDE88901BDE8B5
:101200000088BDE88901BDE80048B619524141EBAC
:101210000101A3F10103704780807F7E7D7C7B7A92
:101220007978777676757473727171706F6E6E6D92
:101230006C6C6B6A6A696868676666656464636338
:1012400062616160605F5F5E5E5D5D5C5C5B5B5ABE
:101250005A5959585857575656555555545453532B
:1012600052525251515050504F4F4F4E4E4D4D4D86
:101270004C4C4C4B4B4B4A4A4A49494948484847D1
:10128000474747464646454545444444444343430F
:101290004342424242414141002B26D4770021D0B3
:1012A0001CB54FEA370703B44FF010004FF01001A0
:1012B0004FF000000FBCBDE810400BF1010BBBF17B
:1012C000010F08BF5FEA170722BF12F1010211F1F7
:1012D00001014FF0004143F1000300F0004043EAF8
:1012E00000007047F9D35708DAE746EA064613F1DB
:1012F000400F4FEA16461FDD13F1200FDFBF1643E4
:101300000A46002120335B42C8D0C3F1200746EAD9
:10131000064602FA07F74FEA164646EA0706C3F101
:10132000200722FA03F201FA07F721FA03F14FF03E
:10133000000342EA0702B1E746EA020646EA064629
:101340004FEA164646EA0106BCBF46EA0646360C98
:101350004FF000034FF000024FF000019EE72DE92F
:10136000C048934630B491E8380007C831EA400CD1
:1013700048BF34EA430C03D5FFF7F2FDFFF78CFFBB
:10138000F0BCBDE800882DE9C048934630B491E830
:10139000380007C810F0804F08BF13F0804F03D10A
:1013A00000F005F8FFF778FFF0BCBDE8008820F0FA
:1013B0007F4780EA030023F07F4C07EB0C03A3F583
:1013C0007C5300F00040A3F1FE0392F0000F00F008
:1013D000B38095F0000F00F077802DE901494FEAC6
:1013E00011404FEA144621EA004800FB06FC24EABB
:1013F000064708FB06F607FB08F800FB07F718EBA3
:1014000006484CEB164C4FEA124B18EB07484FEAD4
:1014100015464CEB174022EA0B4E0BFB06FC25EA67
:1014200006470EFB06F607FB0EFE0BFB07F71EEB4F
:10143000064E4CEB164C4FF000061EEB074E4CEBE5
:10144000174B18EB0B0840F1000018EB0E0B58EB94
:10145000000840F100008F1A4FF000013CBFC94363
:10146000661B14BFB5EB040C00213CBFC943F61B3F
:101470004FEA17444EEA8E0E27EA04454FEA1C470E
:1014800004FB07622CEA074C05FB07F70CFB05F68B
:1014900004FB0CFC16EB074642EB174216EB0C461E
:1014A00042EB1C421BEB060658EB0202414146EAA6
:1014B0009E0601D5BDE80189B619524141EB0101F3
:1014C000A3F10103BDE801894FEA14454FEA114732
:1014D00024EA054621EA074C05FB07F406FB07F75B
:1014E0000CFB06F105FB0CFC11EB074144EB174428
:1014F0004FEA124711EB0C4144EB1C4422EA074C23
:1015000005FB07F206FB07F70CFB06F605FB0CFCD8
:1015100016EB074642EB174216EB0C4642EB1C4516
:101520006A1854F1000148BF7047B619524141EBA7
:101530000101A3F10103704795F0000F37D04FEA86
:1015400011424FEA144721EA024624EA074C02FB03
:1015500007F106FB07F70CFB06F402FB0CFC14EB8F
:10156000074441EB17414FEA154714EB0C4441EB9C
:101570001C4125EA074C02FB07F506FB07F70CFBAD
:1015800006F602FB0CFC16EB074645EB174516EB7F
:101590000C4645EB1C42121951F1000148BF70473F
:1015A000B619524141EB0101A3F1010370474FEA23
:1015B00014454FEA114724EA054621EA074C05FB8A
:1015C00007F106FB07F70CFB06F24FF0000605FBE0
:1015D0000CFC12EB074241EB174112EB0C4251EBB2
:1015E0001C4148BF7047921841EB0101A3F1010370
:1015F000704721B1826842F00102826003E0826894
:1016000022F001028260704710B5044612488442FD
:1016100008D10121401501F0CBF90021601501F03E
:10162000C7F917E00D48844208D10121001501F0E7
:10163000BFF90021201501F0BBF90BE008488442F6
:1016400008D10121C80301F0B3F900214FF4004093
:1016500001F0AEF910BD0000002401400028014057
:10166000003C0140014600208A6802F004020AB1F1
:10167000012000E0002070470146C86C80B270472E
:101680000246002013680B400BB1012000E000204F
:101690007047014600208A6802F008020AB1012062
:1016A00000E000207047000030B502460020002313
:1016B00050680F4C20400D790C6844EA0524204303
:1016C000506090680B4C2040D1E902542C434D7976
:1016D00044EA450420439060D06A20F470000C7CFA
:1016E000641EE4B2234340EA0350D06230BD0000E0
:1016F000FFFEF0FFFDF7F1FFF0B504460D460020B8
:101700000021092D11DDE068A5F10A0606EB460768
:10171000072606FA07F18843A5F10A0606EB4606F6
:1017200003FA06F10843E0600CE0206905EB450789
:10173000072606FA07F1884305EB450603FA06F18A
:1017400008432061072A0FDA606B561E06EB8607F6
:101750001F2606FA07F18843561E06EB860605FA91
:1017600006F10843606322E00D2A0FDA206BD61FD2
:1017700006EB86071F2606FA07F18843D61F06EBFD
:10178000860605FA06F10843206310E0E06AA2F13C
:101790000D0606EB86071F2606FA07F18843A2F11D
:1017A0000D0606EB860605FA06F10843E062F0BD79
:1017B000816841F008018160704721B1826842F47C
:1017C000A002826003E0826822F4A0028260704777
:1017D000816841F0040181607047000000B587B066
:1017E00001214FF4017001F0D3F84FF4004001F0F3
:1017F000B3F81020ADF8040000208DF8070001A90F
:10180000174800F0C9F81748FFF7FEFE00200290C5
:101810008DF80C008DF80D004FF46020049000202E
:10182000059001208DF8180002A90E48FFF73CFF33
:1018300001210C48FFF7DDFE0A48FFF7B9FF00BFA2
:101840000848FFF726FF0028FAD10648FFF7C0FF37
:1018500000BF0448FFF706FF0028FAD107B000BD1B
:101860000008014000240140014908607047000061
:1018700000860D4200BFFEE710B504460F49204622
:1018800006F08EF904D30E49204606F089F812D2EC
:1018900000200C4908600C49C1F8BC010949091F26
:1018A00008600949C1F8B00101220021084601F091
:1018B000FFF9012010BD0020FCE7000000002042DD
:1018C000000020C2B8812142008021427047000000
:1018D00070B59AB015A801F0FFF800F005F90646BA
:1018E000159805F065FE044622460B4618A10FA880
:1018F000FEF7CEFCBDF964201AA10AA8FEF7C8FCC9
:10190000BDF966201BA105A8FEF7C2FC304605F014
:101910004FFE044622460B461AA16846FEF7B8FC65
:101920000FAA0021084600F0C1FF0AAA0A210020E0
:1019300000F0BCFF05AA1421002000F0B7FF6A46A2
:101940001E21002000F0B2FF00F036FF1AB070BD7B
:10195000416E676C6520203A20252E326643202098
:1019600020000000454C65667420203A2025642044
:1019700020202000455269676874203A20256420A1
:1019800020202000566F6C746167653A20252E3246
:1019900066562020200000002DE9F0410246002577
:1019A0000026002000230024002791F803C00CF03B
:1019B0000F0591F803C00CF0100CBCF1000F03D020
:1019C00091F802C04CEA050591F800C0BCF1000F87
:1019D00031D0146800202BE04FF0010C0CFA00F31A
:1019E000B1F800C00CEA03069E4220D183004FF0FC
:1019F0000F0C0CFA03F7BC4305FA03FC4CEA040491
:101A000091F803C0BCF1280F06D14FF0010C0CFA7D
:101A100000FCC2F814C00AE091F803C0BCF1480F02
:101A200005D14FF0010C0CFA00FCC2F810C0401CAC
:101A30000828D1D31460B1F800C0BCF1FF0F34DD29
:101A4000546800202EE000F1080C4FF0010808FA5D
:101A50000CF3B1F800C00CEA03069E4221D18300CA
:101A60004FF00F0C0CFA03F7BC4305FA03FC4CEAE9
:101A7000040491F803C0BCF1280F05D100F1080C53
:101A800008FA0CF8C2F8148091F803C0BCF1480FB2
:101A900007D100F1080C4FF0010808FA0CF8C2F861
:101AA0001080401C0828CED35460BDE8F08101614D
:101AB0007047000010B5044607230122214609485B
:101AC000FFF71AFE01210748FFF777FE00BF02214A
:101AD0000448FFF7D5FD0028F9D00248FFF7CCFDF8
:101AE00010BD0000002401402DE9F04F85B0042016
:101AF000FFF7E0FF019005F069FA4FF066320E4BF8
:101B0000CDE9020105F07AFA804600220B4B05F080
:101B100075FA064600220A4B05F000F90446002239
:101B2000084B05F0FBF8824605F016F8049004987F
:101B300005B0BDE8F08F000066660A40000027404F
:101B40000000F83F0000B0402DE9F04104460E4689
:101B5000022000F0D9FF0746B7F5004F03DB781CE1
:101B600000B2208001E038B220802088404200B2DC
:101B70002080042000F0C8FF0546B5F5004F03DBC8
:101B8000681C00B2308001E028B23080BDE8F081EE
:101B900001480078704700009000002000BFFEE779
:101BA00001464906084A926942F00102064B9A61D1
:101BB000064A526822F0E062044B5A601A465268A4
:101BC0000A435A60704700000010024000000140C4
:101BD00008B50121042000F0DBFE4FF40040ADF811
:101BE000000048208DF8030069460248FFF7D4FE44
:101BF00008BD00000008014010B52048006800281A
:101C00003AD10A2002F09AFB1C480068002833D120
:101C10001B48007820B101211A4801F037FB20E071
:101C20000021184801F032FB0020174908601749CD
:101C3000C1F8BC011449091F0860091F0860012090
:101C40000E497431086000201149086048608860BE
:101C50008881C8810882488201220021084601F05B
:101C600027F80748007880F001000549087000BF98
:101C7000024800680028FBD010BD00003C01214252
:101C80003800002000040040B88121420080214239
:101C9000D804002008B50121042000F079FE4FF49B
:101CA0008050ADF8000010208DF8030003208DF85F
:101CB000020069460348FFF76FFE012002490860F1
:101CC00008BD000000080140B0012142B0F9002029
:101CD00041F658339A4202DD1A46028007E0B0F915
:101CE00000200C4B9A4202DA4EF2A8420280B1F96F
:101CF000002041F658339A4202DD1A460A8007E076
:101D0000B1F90020034B9A4202DA4EF2A8420A804F
:101D100070470000A8E4FFFF10B500200E490860DE
:101D20000E48006820F0F0000C4908600846006882
:101D300040F03000086000200949C1F8A40100F01B
:101D400011F801200449086000F00CF80020044953
:101D5000C1F8A00110BD0000A0812142040C014087
:101D60000080214210B5022002F00EFB10BD0000E1
:101D700008B50121082000F00BFE4FF44070ADF8CB
:101D8000000010208DF8030003208DF80200694642
:101D90000448FFF701FE4FF440710248FFF787FE49
:101DA00008BD0000000C014010B500200E4908607D
:101DB0000E48006820F0F0000C49086008460068F2
:101DC00040F03000086001200949C1F8A401FFF784
:101DD000C9FF012004490860FFF7C4FF002004493F
:101DE000C1F8A00110BD0000A0812142040C0140F7
:101DF0000080214270B5054600241648006820F096
:101E0000F000144908600846006840F0800008604F
:101E1000002614E0002010490860FFF7A3FF01200E
:101E20000E49C1F8A0016006040E0B487C3800681A
:101E300008B1601CC4B2FFF795FF701CC6B2082E33
:101E4000E8DB15B9FFF7B0FF01E0FFF765FF2046BB
:101E500070BD0000040C0140A0812142008021429D
:101E600070B504461248006820F0F0001049086080
:101E70000846006840F03000086000200D49086006
:101E8000002512E0E0090B49091D08606006040EF8
:101E900001200949C1F8A001FFF764FF00200549AE
:101EA0000860FFF75FFF681CC5B2082DEADB70BD54
:101EB000040C0140A08121420080214210B50E484F
:101EC000006820F0F0000C4908600846006840F007
:101ED000300008600120094908600949C1F8A001E3
:101EE000FFF740FF002005490860FFF73BFF002097
:101EF0000349C1F8A00110BD040C0140A481214296
:101F00000080214210B50E48006820F0F0000C4916
:101F100008600846006840F0300008600020094969
:101F200008600949C1F8A401FFF71CFF0120054919
:101F300008600549C1F8A401FFF714FF10BD0000B7
:101F4000040C0140A08121420080214210B50024F0
:101F50001448006820F0F000124908600846006844
:101F600040F08000086001200F490860FFF7FAFE8A
:101F700001200E49C1F8A001FFF7F4FE07E0601C44
:101F8000C4B2FA2C03DDFFF7BDFF012010BD0648E7
:101F9000803800680028F2D10349091F086000BF9B
:101FA000F4E70000040C0140A4812142008021429A
:101FB00010B5FFF7DDFE80216B2000F0D7F864201C
:101FC00002F0BCF900216B2000F0D0F8032000F0F3
:101FD0008BF8002000F080F8322000F0AAF80021F1
:101FE000382000F0C3F800216A2000F0BFF800217B
:101FF000232000F0BBF88021372000F0B7F87520CF
:1020000000F013F80446682C0BD101216B2000F07E
:10201000ADF800216C2000F0A9F8322000F089F81A
:1020200001E0012010BD0020FCE770B50446FFF779
:1020300045FFD020FFF714FFFFF788FF2046FFF78A
:102040000FFFFFF783FFFFF739FFD120FFF708FFEE
:10205000FFF77CFF0020FFF7CDFE0546FFF752FF9C
:10206000284670BD2DE9F04106460F4614461D4630
:10207000FFF724FF002141EA4601C8B2FFF7F0FE56
:10208000FFF764FF20B1FFF73DFF0120BDE8F081BD
:102090003846FFF7E5FEFFF759FFFFF70FFF012175
:1020A00001EB4601C8B2FFF7DBFEFFF74FFF0DE083
:1020B000012C04D10020FFF79DFE287003E00120D1
:1020C000FFF798FE2870601EC4B26D1C002CEFD183
:1020D000FFF718FF0020D9E710B50446E006010E0F
:1020E0001C2000F043F810BD10B50446E006010EB8
:1020F0001B2000F03BF810BD70B504460025BC2C39
:1021000001DB012510E0622C01DB02250CE02A2C0A
:1021100001DB032508E0142C01DB042504E00A2C74
:1021200001DB052500E0062529461A2000F01EF8EF
:1021300070BD70B50446B4F57A7F01DD4FF47A7452
:10214000042C00DA04244FF47A7090FBF4F0401E63
:10215000C5B22946192000F009F80546264604EBC9
:10216000D671C1F34F00FFF7C7FF70BD70B50546CC
:102170000C46FFF7A3FED020FFF772FEFFF7E6FE46
:1021800018B1FFF7BFFE012070BD2846FFF768FEBB
:10219000FFF7DCFE2046FFF763FEFFF7D7FE18B11E
:1021A000FFF7B0FE0120EFE7FFF7ACFE0020EBE702
:1021B0002DE9F04105460E4617469846FFF77EFE8C
:1021C000002141EA4501C8B2FFF74AFEFFF7BEFE13
:1021D00020B1FFF797FE0120BDE8F0813046FFF700
:1021E0003FFEFFF7B3FE00240CE018F80400FFF7F1
:1021F00037FEFFF7ABFE18B1FFF784FE0120EBE7D7
:10220000601CC4B2BC42F0DBFFF77CFE0020E3E7B9
:1022100000BFFEE708B50121082000F0B9FB4FF42C
:102220007040ADF8000010208DF8030003208DF8F9
:10223000020069460148FFF7AFFB08BD000C0140F2
:1022400000B589B00121C80200F0A2FB01210420E1
:1022500000F09EFB4FF41060ADF8200018208DF8C0
:10226000230003208DF8220008A91D48FFF794FBE6
:1022700041F61F40ADF818000020ADF81400ADF88D
:102280001A00ADF8160005A9164801F085F960207E
:10229000ADF804000120ADF806000020ADF80A00FA
:1022A000ADF80C0001A90F4801F0A6F801A90D48EE
:1022B00001F0F8F801210B4800F0F4FF082109486B
:1022C00001F0E6F80821074801F02AF90121054844
:1022D00000F0CAFF0121034800F0D8FF09B000BD9B
:1022E00000080140002C014010B50EE009A21921A0
:1022F0000A2000F0DBFA00F05FFAC82002F01EF8B6
:1023000000F066F9C82002F019F803F025FB002858
:10231000ECD110BD4D505536303530204572726FBE
:10232000722100007047000070B5002100230F22C9
:10233000C47804B3154C246804F4E064C4F5E06484
:10234000210AC1F10403CA40447804FA03F18478F5
:102350001440214309010E4C0678A155047804F07D
:102360001F050124AC4005786D11AD0005F1E02595
:10237000C5F8004109E0047804F01F050124AC40D1
:10238000044D0678761145F8264070BD0CED00E04E
:1023900000E400E080E100E002490143024A1160EC
:1023A000704700000000FA050CED00E008B50121BF
:1023B0000C2000F0EDFA0420ADF8000010208DF89C
:1023C000030003208DF8020069462348FFF7E4FA72
:1023D0000820ADF8000048208DF8030003208DF898
:1023E000020069461C48FFF7D7FA0820ADF8000044
:1023F00010208DF8030003208DF80200694617486D
:10240000FFF7CAFAA020ADF8000010208DF80300F5
:1024100003208DF8020069460F48FFF7BDFA4020FF
:10242000ADF8000048208DF8030003208DF802006D
:1024300069460948FFF7B0FA002009490860012001
:102440000849C1F8880100200749086001200549B2
:10245000C1F80C0108BD000000080140000C01405B
:102460008C812142000021429401214270B5044632
:10247000072000F035F805462946272000F090F89F
:1024800005F0400050B101222146612000F008F81B
:10249000FF21E22000F084F8002070BD0120FCE75D
:1024A0002DE9F04107460C46154600200B4908600F
:1024B000384600F091FC8046002606E0002000F03F
:1024C0008BFC2070641C701CC6B2AE42F6DB01208F
:1024D000024908604046BDE8F081000088012142C1
:1024E00070B50446002007490860204600F074FCDF
:1024F000002000F071FC054601200349C1F8880165
:10250000284670BD880121420000214210B50020FC
:1025100011490860052211492A2000F023F8012101
:10252000212000F03DF80121222000F039F8282177
:10253000252000F035F80121312000F031F80F217D
:10254000262000F02DF80F21202000F029F801208E
:102550000349C1F88C0110BD8C812142939400087D
:10256000008021422DE9F04107460C461546002027
:102570000A490860384600F02FFC8046002605E036
:10258000207800F029FC641C701CC6B2AE42F7DB58
:102590000120024908604046BDE8F08188012142DF
:1025A00070B505460C46002007490860284600F033
:1025B00013FC0646204600F00FFC01200349C1F839
:1025C0008801304670BD0000880121420000214290
:1025D00030B500240CE0002506E00020074901EB9F
:1025E000C5010855681CC5B2802DF6DB601CC4B25D
:1025F000082CF0DB00F0E0F830BD0000D80000202F
:10260000F0B5144600267F2801DC3F2900DDF0BD2F
:102610000B46CF1701EB5777FF10C7F10707FAB248
:10262000CF1701EB5777FF10A1EBC707FDB2C5F13C
:1026300007070123BB40DEB24CB10A4B03EBC003DA
:102640009B5C3343074F07EBC007BB5408E0054BC7
:1026500003EBC0039B5CB343024F07EBC007BB54C3
:1026600000BFD4E7D800002008B50121082000F001
:102670008FF91020ADF800008DF8030002208DF8CE
:10268000020069464848FFF787F90121112000F050
:102690007FF94FF46040ADF8000002208DF8020091
:1026A00010208DF8030069464048FFF775F90120B6
:1026B00000F04AF9002000F0F5F90020FFF7D4F807
:1026C000002000F041F9002039490860642001F041
:1026D00035FE01203749C1F8B4010021AE2000F0D9
:1026E00007F90021D52000F003F90021502000F067
:1026F000FFF80021A82000F0FBF800213F2000F0A7
:10270000F7F80021D32000F0F3F80021084600F08C
:10271000EFF80021402000F0EBF800218D2000F0C0
:10272000E7F80021142000F0E3F80021202000F059
:10273000DFF80021022000F0DBF80021A12000F0EA
:10274000D7F80021C02000F0D3F80021DA2000F0F3
:10275000CFF80021122000F0CBF80021812000F0FA
:10276000C7F80021EF2000F0C3F80021D92000F0C5
:10277000BFF80021F12000F0BBF80021DB2000F0C1
:10278000B7F80021302000F0B3F80021A42000F0B9
:10279000AFF80021A62000F0ABF80021AF2000F038
:1027A000A7F8FFF715FF08BD000C0140001001401D
:1027B000B40122420000224230B500241CE004F1A2
:1027C000B001C8B2002100F093F80021084600F0E3
:1027D0008FF80021102000F08BF8002508E0084950
:1027E00001EBC501085D012100F082F8681CC5B24B
:1027F000802DF4DB601CC4B2082CE0DB30BD00008F
:10280000D80000202DE9F04F80460C4615461E46A4
:10281000A346A5F12000C5B200273EE00C2E07D14B
:1028200005EB45001F4901EB800010F8079004E01C
:102830001D4800EB051010F807904FF0000A26E045
:1028400009F0800028B121464046099AFFF7D8FEDA
:1028500009E0099808B9012000E00020024621465D
:102860004046FFF7CDFE4FEA49604FEA1069601C11
:10287000C4B2A4EB0B00B04205D15C4608F10100E4
:1028800000F0FF0806E00AF1010000F0FF0ABAF1CB
:10289000080FD5DB00BF781CC7B2B742BEDBBDE86E
:1028A000F08F00002A8A00089E8E000878B5054641
:1028B0000E46144618E07A2D03DD002506F11000BF
:1028C000C6B23A2E04DD002005460646FFF780FE1C
:1028D0000120009022780C2331462846FFF792FF12
:1028E00005F10800C5B2641C20780028E3D178BD4A
:1028F00010B50A461AB10123114C236002E00023EF
:102900000F4C2360002114E000230E4C236000F0E4
:1029100080031BB10123241F236003E00023094C23
:10292000241F23600123074C23604306180E4B1C11
:10293000D9B20829E8DB0123014C236010BD000057
:1029400090812142BC012242014908627047000087
:1029500000000E427047000001460020034A506804
:1029600020F44040084350607047000000100240CF
:1029700029B1064AD2690243044BDA6104E0034AF2
:10298000D2698243014BDA617047000000100240B7
:1029900029B1064A92690243044B9A6104E0034A52
:1029A00092698243014B9A61704700000010024017
:1029B00029B1064AD2680243044BDA6004E0034AB4
:1029C000D2688243014BDA60704700000010024079
:1029D00030B500210022002400232D4D6D6805F044
:1029E0000C0121B1042905D0082923D105E0294D86
:1029F000056022E0274D05601FE0254D6D6805F458
:102A00007012234D6D6805F48034022505EB924267
:102A10001CB9214D554305600BE01D4D6D6805F453
:102A200000351DB11C4D5543056002E0194D55435D
:102A3000056002E0174D056000BF00BF144D6D68D2
:102A400005F0F0010909154D6B5C0568DD40456036
:102A50000F4D6D6805F4E061090A104D6B5C456827
:102A6000DD4085600A4D6D6805F46051C90A0B4D63
:102A70006B5C4568DD40C560054D6D6805F44041FF
:102A8000890B074D6B5CC568B5FBF3F5056130BD7F
:102A90000010024000127A0000093D00B40000203E
:102AA000C400002000210B4A11700A4A203A82F823
:102AB0002010012802D0042808D103E00121054A92
:102AC000117004E00521034A117000E000BF00BF4F
:102AD00070470000201002400A4909680160094956
:102AE000496841600749896881600649898981810F
:102AF0000449C989C1810349098A01820149498A76
:102B000041827047D80400200146022902D00429DE
:102B10000ED107E04FF08042908C00224FF08043AE
:102B20009A8407E0044A10880022034B1A8001E0CF
:102B3000002000BF00BF70472408004010B50448C3
:102B4000FFF794FC10B100200149087010BD00008F
:102B5000900000207047000000280ADA0122174B7D
:102B60001A600022164BC3F8BC214242154B1A8052
:102B700008E00022114B1A600122114BC3F8BC215E
:102B8000104B188000290CDA01220C4B1B1F1A6015
:102B900000220B4BC3F8B0214A420A4B0C331A8077
:102BA0000AE00022054B1B1F1A600122044BC3F8E8
:102BB000B021044B0C33198070470000B8812142CA
:102BC00000802142342C014010B500F001F810BD06
:102BD0000CB50020019000903348006840F480302C
:102BE0003149086000BF3048006800F400300090B0
:102BF0000198401C0190009818B90198B0F5A06F99
:102C0000F1D12948006800F4003010B10120009093
:102C100001E0002000900098012843D1234800687B
:102C200040F01000214908600846006820F00300C9
:102C300008600846006840F0020008601A484068D2
:102C4000194948600846406848600846406840F4B2
:102C5000806048600846406820F47C104860084660
:102C6000406840F4E81048600846006840F0807012
:102C7000086000BF0C48006800F000700028F9D020
:102C80000948406820F0030007494860084640684A
:102C900040F00200486000BF0348406800F00C00AC
:102CA0000828F9D10CBD00000010024000200240AD
:102CB0002DE9FF5F064689461546012D05D1002006
:102CC0003C49486104B0BDE8F09F06EB09010846A5
:102CD00004F03AFE3749C860086904F069FC074609
:102CE000354A364B04F08AF9CDE902013149C8680A
:102CF00004F05EFC0746304A314B04F07FF9CDE921
:102D00000001DDE9022303F059FF824603F024FFAE
:102D10002849C8600A46D168506904F075FC254905
:102D20004861022D06D14869264904F06BFF21490C
:102D3000486108E0032D06D11E494869224904F084
:102D400063FC1C4948611B494869204904F028FF7D
:102D500003D21E481749486108E0164948691C49D2
:102D600004F01EFE02D21A4812494861114A516904
:102D7000506804F049FE80460E4AD168106804F09D
:102D800043FE8246414604F03FFC074604F0A0FDA6
:102D9000044641F658318C4201DD0C4603E00D48F3
:102DA000844200DA04460348C0680249086120B240
:102DB00088E70000600000209A9999999999E93F65
:102DC0009999C93F000048420000204200E02B458D
:102DD00000E02BC5A8E4FFFF002112E0C2110A4B5E
:102DE0001A604206100E0122084BC3F89421064ACD
:102DF000843A12680243D0B20022C3F894214A1CDC
:102E0000D1B20829EADB70479C012142000021422F
:102E1000042808D14FF0E021096941F004014FF086
:102E2000E022116107E04FF0E021096921F004017F
:102E30004FF0E022116170477047000010B5134851
:102E4000006840F0010011490860084640681049D8
:102E500008400E494860084600680E4908400B4982
:102E600008600846006820F4802008600846406832
:102E700020F4FE0048604FF41F008860FFF7A4FEB6
:102E80004FF000600449086010BD000000100240CF
:102E90000000FFF8FFFFF6FE08ED00E0F0B50C467D
:102EA000154600220021068C4FF6FE773E40068430
:102EB000028B018C4FF60C7632407E1C06EA03161C
:102EC0002E433243104EB0420ED0104EB0420BD0C3
:102ED000B0F1804F08D00E4EB04205D00D4EB0423A
:102EE00002D00D4EB04206D14FF6FD76314044F08F
:102EF0000106314305E04FF6F576314044F0010616
:102F0000314302830184F0BD002C014000340140B4
:102F10000004004000080040000C0040F0B50C46E2
:102F20001546002200210026078C4FF6EF7C07EAA9
:102F30000C070784028B018C4FF6FF7707EA041613
:102F400040F6FF473A404FF6FF7707EA03373A4328
:102F50004FF6FF7707EA05273A43114FB8420ED0E4
:102F6000104FB8420BD0B0F1804F08D00E4FB8428E
:102F700005D00E4FB84202D00D4FB84206D14FF6E1
:102F8000DF77394046F01007394305E04FF65F77A9
:102F9000394044F01007394302830184F0BD00003A
:102FA000002C0140003401400004004000080040B3
:102FB000000C0040F0B50C4615460022002100260A
:102FC000078C4FF6FF6C07EA0C070784828B018C95
:102FD0004FF6FF7707EA04264FF60C773A404FF694
:102FE000FF7707EA03172F433A43114FB8420ED039
:102FF000104FB8420BD0B0F1804F08D00E4FB842FE
:1030000005D00E4FB84202D00D4FB84206D14FF650
:10301000FF57394046F48077394305E04FF2FF57B8
:10302000394044F48077394382830184F0BD000045
:10303000002C014000340140000400400008004022
:10304000000C0040F0B50C46154600220021002679
:10305000078C4EF6FF7C07EA0C070784828B018CF5
:103060004FF6FF7707EA043640F6FF473A404FF63F
:10307000FF7707EA05273A434FF6FF7707EA03375A
:103080003A43114FB8420ED0104FB8420BD0B0F1B6
:10309000804F08D00E4FB84205D00E4FB84202D034
:1030A0000D4FB84206D14DF6FF77394046F48057B0
:1030B000394305E047F6FF57394044F48057394318
:1030C00082830184F0BD0000002C014000340140E7
:1030D0000004004000080040000C004008B5012139
:1030E000574800F00FF9002873D056480088401C5C
:1030F0005449088008460088632809DD00200880BC
:103100005148006808B9012000E000204E490860DD
:103110004E49881EFEF718FD4C48001F831E821F73
:10312000111F00900E3802F0FDFAFEF731FD4849FC
:103130000870464A123AB2F90C10106800F0A0FC70
:10314000444908804248007801280BD13F4A123A8E
:10315000B2F91210B2F910000222FFF7A9FD3E49A0
:1031600008801AE03A48007802280BD1374A123A10
:10317000B2F91210B2F910000322FFF799FD364997
:1031800008800AE0314A123AB2F91210B2F910007E
:103190000022FFF78DFD304908802D480078032874
:1031A00009D12A491239B1F90E00012100F01EFBA4
:1031B0002A49088017E02648007804280AD12349C4
:1031C0001239B1F90E00022100F010FB23490880EA
:1031D00009E033E01D491239B1F90E00002100F079
:1031E00005FB1E4908801B4800881B4909880844C4
:1031F0001A490988084400B219490880154800880E
:1032000015490988084415490988401A00B215492A
:1032100008801348FEF75AFD0C4912390868FEF77A
:103220002BFB38B90F48B0F900100D48B0F9000079
:10323000FFF792FC0121024800F025F808BD0000CC
:10324000000400403A000020B0012142EA040020BE
:10325000460000203C0000203E00002040000020EE
:10326000420000204400002021B1028842F0800288
:10327000028004E002884FF67F731A400280704794
:10328000CA4302827047CA430282704721B1028852
:1032900042F00102028004E002884FF6FE731A40F9
:1032A0000280704731B1B0F8442042F40042A0F8E7
:1032B000442005E0B0F84420C2F30E02A0F84420F8
:1032C0007047F0B50C4615461E460021002200232B
:1032D0000189028B038C4FF6F877394021434FF672
:1032E000FC473A4040F201173A434FF6DD773B4046
:1032F0004FF6FF7707EA06172F433B43018102830E
:103300000384F0BD30B50246002000230024158A56
:1033100005EA0103958905EA010413B10CB1012006
:1033200000E0002030BD000070B505460C46244882
:1033300085420ED0234885420BD0B5F1804F08D08E
:103340002148854205D02148854202D02048854247
:1033500000D100E000BF208850B92389A28861888D
:103360002846FFF79BFDE188284600F0E8F825E0B5
:10337000208804280AD12389A28861882846FFF77B
:10338000CDFDE188284600F0E3F817E02088082802
:103390000AD12389A28861882846FFF70BFEE188BD
:1033A000284600F0E2F809E02389A28861882846CF
:1033B000FFF748FEE188284600F0E0F870BD000005
:1033C000002C01400034014000040040000800408F
:1033D000000C0040002101804180012181800021FA
:1033E000C180018170471AB183890B43838102E058
:1033F00083898B438381704770B5002400220023AA
:10340000058C4FF6FE7635400584028C8388048B4C
:103410004FF68F752C40B51E2C400D882C43751E21
:103420002A400D892A434D882A43144DA8420BD0C7
:10343000134DA84208D0134DA84205D0124DA84202
:1034400002D0124DA84213D14FF6F7752A404D898C
:103450002A434FF6FB752A408D882A434FF6FF65B5
:103460002B404FF6FF552B408D892B43CD892B43A5
:1034700083800483CD888586028470BD002C014042
:103480000034014000400140004401400048014038
:103490000A460021018B4FF6F7731940114301834F
:1034A0007047000070B5002200230024058C4EF602
:1034B000FF7635400584038C8488828B48F6FF753F
:1034C0002A404FF6FF452A400D884FF6FF7606EA60
:1034D00005252A434DF6FF752B400D8906EA053573
:1034E0002B434D8806EA05352B430B4DA84202D0ED
:1034F0000A4DA84208D14BF6FF752C408D894FF636
:10350000FF7606EA85152C4384808283CD88A0F857
:103510004050038470BD0000002C01400034014085
:103520000A460021818B4FF2FF7319404FF6FF735B
:1035300003EA022319438183704781847047028B19
:103540004FF6F3731A400283028B0A4302837047DB
:10355000028B4FF2FF331A400283028B4FF6FF7348
:1035600003EA01231A4302837047828B4FF6F373F9
:103570001A408283828B0A4382837047828B4FF288
:10358000FF331A408283828B4FF6FF7303EA0123D5
:103590001A43828370470000002202881D4B984224
:1035A0000ED01D4B98420BD0B0F1804F08D01B4B72
:1035B000984205D01A4B984202D01A4B984204D137
:1035C0004FF68F731A404B881A43174B984207D017
:1035D000164B984204D04FF6FF431A40CB881A434B
:1035E00002808B8883850B8803850A4B98420BD019
:1035F000094B984208D00E4B984205D00D4B98428B
:1036000002D00D4B984201D10B7A038601238382AD
:1036100070470000002C01400034014000040040CD
:1036200000080040000C0040001000400014004062
:103630000040014000440140004801404FF6FF7146
:10364000818000210180C1804180017270470000AB
:1036500000B587B001210846FFF78AF9012104204F
:10366000FFF796F90320ADF8000004208DF8030061
:1036700069461E48FEF790F904A8FFF7DFFF002017
:10368000ADF810004FF6FF70ADF814000020ADF853
:103690001600ADF8120004A94FF08040FFF77CFF40
:1036A00000231A4603214FF08040FFF70AFE01A8CD
:1036B000FFF790FE0A20ADF80C0001A94007FFF7C4
:1036C00033FE01218807FFF7DBFD01221146900739
:1036D000FFF789FE00214FF08040FFF72EFF012108
:1036E0008807FFF7D3FD07B000BD000000080140C8
:1036F0001FB501210220FFF73BF941F28730ADF8F9
:1037000008004720ADF804000020ADF80A00ADF82D
:10371000060001A90D48FFF73FFF012211460B48A3
:10372000FFF761FE1D208DF8000000208DF80100DC
:103730008DF8020001208DF803006846FEF7F4FDC5
:1037400000210248FFF7A2FD1FBD00000004004059
:1037500000B587B001210420FFF70AF901210820F4
:10376000FFF716F9C020ADF8000004208DF8030023
:1037700069461C48FEF710F904A8FFF75FFF002018
:10378000ADF810004FF6FF70ADF814000020ADF852
:103790001600ADF8120004A91348FFF7FDFE002340
:1037A0001A4603211048FFF78CFD01A8FFF712FE0F
:1037B0000A20ADF80C0001A90B48FFF7B5FD012167
:1037C0000948FFF75DFD012211460748FFF70BFE90
:1037D00000210548FFF7B1FE01210348FFF756FD20
:1037E00007B000BD000C0140000800402DE9F04189
:1037F00004460E46012E07D1A4F59850883804F0EF
:10380000A3F81449C8600EE0022E07D141F28830B7
:10381000204404F099F80F49C86004E0204604F001
:1038200093F80C49C8600B4AD168106804F0ECF8B2
:10383000074604F04DF805B241F27070854201DD93
:10384000054603E00448854200DA05462846BDE8FF
:10385000F08100007800002090E8FFFF10B540F2F2
:1038600025511D4800F04AF810B31B4800F002F93A
:10387000C4B21A48008800F40040C8B9174800884C
:1038800000F4804060B10A2C03D000201349088066
:1038900020E01248008840F400401049088019E0F8
:1038A0000D2C06D10D48008840F480400B4908805B
:1038B00010E00A480088C0F30D0009490C5407487D
:1038C0000088401C0549088008460088C72801DD9B
:1038D0000020088010BD0000003801409C0000203E
:1038E000EC04002021B1828942F40052828104E07C
:1038F00082894DF6FF731A408281704770B5024687
:10390000002400230025002040F66A16B14200D1B1
:1039100000BFC1F3421501F01F03012606FA03F3AD
:10392000012D02D19689334006E0022D02D1168A7C
:10393000334001E0968A33400C12012606FA04F463
:103940001688344013B10CB1012000E0002070BD96
:10395000F0B50346002400260025002040F66A1733
:10396000B94200D100BF1846C1F3421401F01F064E
:10397000012707FA06F5012C01D10C3004E0022CD6
:1039800001D1103000E014301AB107682F430760EE
:1039900002E00768AF430760F0BD00002DE9F04783
:1039A00086B005460E460024A24600BFA146002769
:1039B000B08900B100BF2F462C8A4CF6FF7004403E
:1039C000F08804432C82AC894EF6F3100440B08892
:1039D00031890843718908430443AC81AC8A4FF6AE
:1039E000FF400440B0890443AC8201A8FEF7F0FF19
:1039F0001F48874202D1DDF810A001E0DDF80CA0DD
:103A0000A88900F4004040B10AEBCA0000EB0A109C
:103A100031684900B0FBF1F807E00AEBCA0000EB9F
:103A20000A1031688900B0FBF1F86420B8FBF0F0AF
:103A300004012009642101FB1089A88900F40040D9
:103A400040B1322000EBC900B0FBF1F000F00700FC
:103A5000044308E0322000EB09106421B0FBF1F0D0
:103A600000F00F0004432C8106B0BDE8F087000091
:103A70000038014001468888C0F308007047000004
:103A80002DE9F04705460C460021284604F0BAF817
:103A90000D49C860204603F057FF82460A488168F6
:103AA000504603F0B1FF8046074AD168106803F022
:103AB000ABFF8146414603F0A7FD074603F008FF30
:103AC00006B23046BDE8F0874800002000BFFEE7A0
:103AD000490050EAC12018BF04204A0D18BF40F029
:103AE000010040F2FF72B2EB515F08BF40F00200EC
:103AF000012808BF052070472DE9F0414F1E00EB5B
:103B0000C7010446D1E9000115461E4637F00602FA
:103B10000DD02A46334603F071FA7F1E04EBC7032B
:103B2000D3E9002303F04AF837F00602F1D1022F5F
:103B300025D0042F13D0062F18BFBDE8F0812A46E8
:103B4000334603F05BFAD4E90A2303F037F82A4638
:103B5000334603F053FAD4E9082303F02FF82A463A
:103B6000334603F04BFAD4E9062303F027F82A463C
:103B7000334603F043FAD4E9042303F01FF82A463E
:103B8000334603F03BFAD4E9022303F017F82A4640
:103B9000334603F033FAD4E90023BDE8F04103F0E3
:103BA0000DB8012204F0D7B803F008B8002213467C
:103BB0001046114603F0B2B8024A0020110704F083
:103BC000CAB8000001FDFFFF30380A2801D20120E9
:103BD000704700207047014600BF70472DE9FE4F37
:103BE00006460F460025684601F0DCF9002442E055
:103BF00056F8240057F82410A0EB010ABAF1000F80
:103C000001DB514601E0CAF10001084603F09CFEC9
:103C100083464FF08F4103F065FD80465DF8240038
:103C2000002103F021FE16D05DF82410404603F079
:103C300059FD82464FF07E5103F0E4FF814629F0A2
:103C4000004A0F48416A504603F0AAFF12D20120F1
:103C5000A04005430EE00A48C169404603F0A0FEBB
:103C600005D30748016A404603F09AFF02D20120BB
:103C7000A0400543641C032CBADB2846BDE8FE8F38
:103C80000C7E00082DE9F04D8D4F21F0004A86B0E2
:103C900005460C46BA452ADBAAEB070028430AD0A2
:103CA0008848824501DC1AD1CDB106B02846BDE86E
:103CB000F04DFFF776BF844A844B284603F09EF907
:103CC00007460E46824A834B2846214603F096F962
:103CD00006B03A463346BDE8F04D02F06FBF012012
:103CE000FCF776FC06B0BDE8F04DFFF75FBF7A4801
:103CF000824542DABAF1795F0BDA2846FFF7E8FE2F
:103D0000042808BFFFF758FF284606B02146BDE843
:103D1000F08D2A460B46104603F070F983460246A2
:103D20006E480E460B4606217844FFF7E5FE5A46DC
:103D3000334603F063F9804669488A465A4633465B
:103D400004217844FFF7D8FE5A46334603F056F96B
:103D500000223B4602F032FF02460B4640465146E7
:103D600002F0DCFF2A46234603F048F906B02A4653
:103D70002346BDE8F04D02F021BF284624F0004163
:103D800000223D463B4603F037FA4FF0FF3203F086
:103D9000E2FF0646024653480F460B46062178448A
:103DA000FFF7AAFE32463B4603F028F9CDE90001B1
:103DB0004D4832463B4604217844FFF79DFE32468B
:103DC0003B4603F01BF900222B4602F0F7FE834628
:103DD00002913046394602F033FE804643480D4694
:103DE000504517DCDDE900015A46029B02F096FFC0
:103DF00042462B4603F002F942462B4602F0DEFE15
:103E0000012203F0A8FF304A304B03F0E7FA304AB2
:103E1000304B4CE04FF0000A52460B46404602F051
:103E2000CDFECDE9031052462B461046194603F04D
:103E3000E5F832463B4603F0DFF9DDE9033202F0F4
:103E40006DFF06460F46DDE900015A46029B02F06F
:103E500065FF8346009101223046394603F07BFF1F
:103E6000194A1A4B03F0C8F906460F46012240468C
:103E7000294603F070FF5A46009B03F0BFF8324614
:103E80003B4603F0ABFA06460F4601225046294650
:103E900003F061FF0E4DDFF858802A46434603F0D9
:103EA000ABF932463B4603F0A7F92A46434603F0F6
:103EB000A3F9002CD8BF81F0004106B0BDE8F08D19
:103EC0000000F03F0000F07F075C143326A6913C11
:103ED000182D4454FB21F93F0000E03F84570000B7
:103EE0009A5700000E570000245700003333EF3F6D
:103EF000FB21E93F2DE9F84F04460D4621F0004033
:103F000000917349814211DC7249884201DC06D17B
:103F10002CB120462946BDE8F84FFFF742BE6E4857
:103F2000002DCCBF6D496E49BDE8F88F6D498142C7
:103F300011DD6D498142D8BF4FF0FF366DDD20465F
:103F40002946FFF7C5FD042808BFFFF735FE2046C8
:103F50002946BDE8F88F6549654F25F00045814247
:103F600033DD6449814219DD002632464FF080433B
:103F70002046294602F022FE80468A46012220463B
:103F8000294603F0E8FE00223B4603F027FA4246AA
:103F9000534602F0C3FE04460D463EE001260022D1
:103FA000BA463B462046294602F008FE80460F46A8
:103FB000002253462046294603F010FA42463B466B
:103FC00002F0ACFE04460D4627E04B4981421BDD62
:103FD000DFF828A10226002253462046294603F096
:103FE0000DF800223B4602F0E9FD80460F46002214
:103FF00053462046294603F0F1F942463B4602F07B
:104000008DFE04460D4608E0032622462B4600207E
:104010003B4902F083FE04460D4622462B461046DD
:10402000194602F0EBFF8B46824602460B4602F031
:10403000E5FF07460246334888460B46062178448A
:10404000FFF75AFD52465B4602F0D8FF82462E48E3
:104050008B463A46434605217844FFF74DFD3A46E4
:10406000434602F0CBFF02460B46002E504659460F
:104070000CDA02F0A3FD22462B4602F0BFFF01B08E
:1040800022462B46BDE8F04F03F0B6B802F096FD8D
:1040900022462B4602F0B2FF1C4A7A4402EBC603CA
:1040A000D3E9002303F09AF922462B4603F096F950
:1040B000174A7A4402EBC603D3E9002303F09CF8C5
:1040C000009A002AB8BF81F00041BDE8F88F0000D7
:1040D000000010440000F07F182D4454FB21F93FEC
:1040E000FB21F9BF0000DC3F0000203E0000F33F51
:1040F0000000F03F0000E63F008003400000F83F72
:104100000000F0BF26550000E45400008254000077
:104110004A5400002DE9F04D9446CCF1000423F000
:1041200000464CEA0404524F46EAD4749A46884644
:1041300021F00042BC4206D8454240EA050442EA6A
:10414000D474BC4204D9BDE8F04D6246FFF72CBDE3
:10415000AAF14055A5F17F6555EA0C040BD0022465
:1041600004EAAA74434DDFF810E144EAD87452EA35
:10417000000B04D00CE0BDE8F04DFFF7BBBE002CF7
:1041800014BF012CBDE8F08D022C30D0032C32D0AE
:1041900056EA0C0B0AD0BE4220D1BA4209D126F011
:1041A000804622F080423346114617E000291ADB90
:1041B00025E0DFF8C8B0FB44002C04BFDBE90001B8
:1041C000BDE8F08D012C02BFDBE9000181F0004168
:1041D000BDE8F08D022C0AD0032C0CD0BA4212D1CB
:1041E000B8F1000F0BDA23482549BDE8F08D2846C9
:1041F0002449BDE8F08D28467146BDE8F08D1D4884
:104200002149BDE8F08D921B12153C2AC4BF194804
:104210001D490EDCBAF1000FBEBF12F13C0F0020A9
:10422000014606DB624602F079FD21F00041FFF70E
:1042300061FE002C08BFBDE8F08D012C04BF81F0A9
:104240000041BDE8F08D114A114B022C07D003F05C
:10425000C5F82A46BDE8F04D0A4B03F0BFB803F09D
:10426000BDF82A46BDE8F04D064B02F0C5BF000080
:104270000000F07F182D4454FB2109C0DE530000DC
:10428000FB21F9BFFB210940FB21F93F075C1433F7
:1042900026A6A13C2DE9F0410446E07800F0C006D6
:1042A000E07800F03F05607800F0010098B1EF1071
:1042B0002846E91705EB5171C910A5EBC101491C4E
:1042C00001F0FF080B48006820B10A484146026827
:1042D0003846904700BF607800F0080030B10548CC
:1042E000406818B1B011034A516888470020BDE802
:1042F000F0810000C800002010B56FF00400FEF748
:1043000087FD0A4800680A49B0FBF1F009490870C6
:104310000846007800EB4001C1EBC0104FF6FF717A
:1043200001EAC0000449088010BD0000A000002080
:1043300000127A0092000020940000200146114AE9
:1043400012884A434FF0E0235A6100229A611A46CC
:10435000126942F001021A6100BF4FF0E0221069B9
:1043600000F001021AB100F48032002AF5D04FF0BB
:10437000E022126922F001024FF0E0231A610022CC
:104380009A617047940000200146114A12784A430E
:104390004FF0E0235A6100229A611A46126942F0F6
:1043A00001021A6100BF4FF0E022106900F0010223
:1043B0001AB100F48032002AF5D04FF0E0221269E1
:1043C00022F001024FF0E0231A6100229A61704747
:1043D0009200002038B5044664B120208DF800001A
:1043E00028208DF8010030208DF8020038208DF84B
:1043F000030004E0A32204216846FCF761F86A4642
:10440000042140F69E2002F049FA01F033FE38BD47
:104410003EB5044602208DF80000CA208DF8010048
:10442000E3208DF8020009208DF803006A4604217C
:10443000682002F033FAA3208DF8000004F0400059
:1044400048B1C0208DF80100C8208DF80200C220BC
:104450008DF8030006E0A3208DF801008DF802001E
:104460008DF8030004F4C07048B1C4208DF8040036
:10447000CC208DF80500C6208DF8060006E0A320AC
:104480008DF804008DF805008DF80600A3208DF846
:1044900007008DF808008DF809006A460A2140F6E9
:1044A000A72002F0FBF904F0030018B120208DF8DA
:1044B000000002E0D8208DF800006A46012140F695
:1044C000B62002F0EBF904F0200018B1012000F052
:1044D000ADF802E0002000F0A9F804F4C07008B3C1
:1044E00004F4807060B1B2208DF800008B208DF84C
:1044F0000100B6208DF802009B208DF803000BE030
:10450000B0208DF8000080208DF80100B4208DF8D7
:10451000020090208DF803006A46042140F6A22094
:1045200002F0BCF904F0010020B3F8208DF800007F
:104530006A4601214FF40B6002F0B0F9FA2107201E
:1045400000F02CFC072000F0F3FB012000F013FC2E
:10455000642000F0F3FC4FF4FA7000F002FDC82173
:10456000304800F0A3FB282000F0BCFB0A2000F03C
:10457000CCFB08E0D8208DF800006A4601214FF4FA
:104580000B6002F08BF904F0020018B1D9208DF80D
:10459000000002E0D8208DF800006A46012140F2B8
:1045A0003D7002F07BF904F0040018B1012000F026
:1045B00069F802E0002000F065F804F0100018B17E
:1045C0000120FFF707FF02E00020FFF703FF44F0A0
:1045D00008001549488101F04DFD002012498873FB
:1045E00004F0400018B10846807B801D887304F4F5
:1045F000C07020B10C48807B801D0B49887304F08B
:10460000140020B10848807B10300749887304F0FB
:10461000030020B10448807B001D034988730020FB
:104620003EBD000009E3CA02C80000203EB50446B2
:104630006CB10EA1D1E900208968CDE9002002917A
:104640006A4609214FF4976002F028F93EBD0AA29C
:10465000D2E900109268CDE9010200916A46092171
:104660004FF4976002F01AF9F0E70000B8AAB38D92
:10467000B4980D355D000000B8AAAAAAB088C3C5D9
:10468000C700000038B5044664B1C0208DF80000B2
:10469000C2208DF80100C4208DF80200C6208DF8DC
:1046A000030004E08B2204216846FBF709FF6A46F9
:1046B000042140F6982002F0F1F801F0DBFC38BD4F
:1046C00010B5C8234FF48062024940F6F63001F07D
:1046D00065FB10BD347E00082DE9F04F8DB0074614
:1046E000884615469946DDE9166B00240020308087
:1046F0006B49887B5A4605A901F01CFC18B1601E65
:104700000DB0BDE8F08F6648807A00F014000028F4
:1047100067D09DF8140000069DF8151040EA01408E
:104720009DF8161040EA01209DF8171008432860F4
:104730009DF8180000069DF8191040EA01409DF808
:104740001A1040EA01209DF81B10084368609DF88C
:104750001C0000069DF81D1040EA01409DF81E1047
:1047600040EA01209DF81F100843A8609DF8200032
:1047700000069DF8211040EA01409DF8221040EA11
:1047800001209DF823100843E86004F11000C4B232
:10479000286800140190686800140290A86800144A
:1047A0000390E8680014049001984043029901FBCB
:1047B0000100039901FB0100049901FB010ABAF110
:1047C000706F02DBBAF1885F05DD01F053FC002059
:1047D0003080401E94E7B6F9000040F480703080CD
:1047E00000BF2F48807A00F0400020B305A9601C6C
:1047F000085C095D40EA012000B2A8F8000005A9A4
:10480000E01C095C05AAA01C105C41EA002000B273
:10481000A8F8020005A9601D095C201D105C41EA92
:10482000002000B2A8F80400A01DC4B2B6F9000030
:1048300040F0080030801A48408900F4C07008B386
:1048400005A9601C085C095D40EA012000B23880BF
:1048500005A9E01C095C05AAA01C105C41EA002027
:1048600000B2788005A9601D095C201D105C41EA3A
:10487000002000B2B880A01DC4B2B6F9000040F01C
:10488000700030800648807A00F0030018B105A956
:104890000819FFF7FFFC484600F00BFF00202FE748
:1048A000C800002070B588B0064601A801F0CAF81B
:1048B000BDF804000021C90341EA5045C40344483F
:1048C000007A00F0030056F8200005904048007A76
:1048D00000F0040010B10598404205903C48007A71
:1048E000C0F3C10056F8200006903948007A00F065
:1048F000200010B10698404206903548007AC0F377
:10490000811056F8200007903148008900F480702B
:1049100010B10798404207900598C117A0FB0423E7
:1049200001FB043100FB0510810041EA9270059003
:104930000698C117A0FB042301FB043100FB0510FE
:10494000810041EA927006900798C117A0FB0423EA
:1049500001FB043100FB0510810041EA92700790D1
:104960000598000E8DF808000598000C8DF80900D8
:104970000598000A8DF80A000598C0B28DF80B0062
:104980000698000E8DF80C000698000C8DF80D00AE
:104990000698000A8DF80E000698C0B28DF80F0038
:1049A0000798000E8DF810000798000C8DF8110084
:1049B0000798000A8DF812000798C0B28DF813000E
:1049C00002AA0C214FF4257001F068FF08B070BDF9
:1049D000C800002030B585B0044616A207CA02AB55
:1049E00007C3C82C03DD4FF0FF3005B030BDC82031
:1049F00090FBF4F0401E85B2280A8DF80000E8B262
:104A00008DF801006A46022140F2162001F046FFAF
:104A100010B14FF0FF30E8E702AA0C2140F6C120A8
:104A200001F03CFF10B14FF0FF30DEE70448848115
:104A30000020DAE7FEF2ABC4AAF1DFDFBBAFDFDFB5
:104A4000C80000201FB504464848007A00F0030063
:104A500054F8200001904548007A00F0040010B19D
:104A60000198404201904148007AC0F3C10054F8D7
:104A7000200002903D48007A00F0200010B102981A
:104A8000404202903948007AC0F3811054F8200067
:104A900003903648008900F4807010B103984042BA
:104AA00003903349019880FB0101800F40EA8100A7
:104AB00001902F49029880FB0110820042EA917018
:104AC00002902B49039880FB0110820042EA91700A
:104AD00003900198000E8DF800000198000C8DF8ED
:104AE00001000198000A8DF802000198C0B28DF80B
:104AF00003006A4604214FF4747001F0CFFE18B130
:104B00004FF0FF3004B010BD0298000E8DF8000089
:104B10000298000C8DF801000298000A8DF802003E
:104B20000298C0B28DF803006A4604214FF47570F4
:104B300001F0B4FE10B14FF0FF30E3E70398000E30
:104B40008DF800000398000C8DF801000398000A0E
:104B50008DF802000398C0B28DF803006A46042164
:104B60004FF4767001F09AFECCE70000C8000020F8
:104B700009E3CA0210B586B0044647A00068039056
:104B800046A00068029046A00068019045A0006819
:104B9000009004F0030003A9085C8DF8140003A83A
:104BA000C4F3C101405C8DF8150003A8C4F3811162
:104BB000405C8DF8160004F0030002A9085C8DF833
:104BC000100002A8C4F3C101405C8DF8110002A8D6
:104BD000C4F38111405C8DF8120005AA032140F254
:104BE000264001F05BFE18B14FF0FF3006B010BD5B
:104BF00004AA032140F22A4001F050FE10B14FF008
:104C0000FF30F3E7019805900098049004F0040049
:104C100058B19DF8140040F001008DF814009DF883
:104C2000100040F001008DF8100004F0200058B191
:104C30009DF8150040F001008DF815009DF8110059
:104C400040F001008DF8110004F4807058B19DF817
:104C5000160040F001008DF816009DF8120040F09B
:104C600001008DF8120005AA03214FF4886001F0BD
:104C700015FE10B14FF0FF30B8E704AA032140F24F
:104C8000314001F00BFE10B14FF0FF30AEE70648A7
:104C900004810020AAE700004CCD6C000CC92C0058
:104CA0003656760026466600C8000020F8B5054650
:104CB0000E464FF47A7095FBF0F000FB06F4200EE0
:104CC0008DF80000200C8DF80100200A8DF80200FC
:104CD000E0B28DF803006A4604214FF4AE7001F093
:104CE000DDFDF8BD38B50446052094FBF0F084B234
:104CF00020128DF80000E0B28DF801006A46022112
:104D00004FF4AD7001F0CAFD38BD38B5044605203A
:104D100094FBF0F084B220128DF80000E0B28DF820
:104D200001006A4602214FF4AC7001F0B7FD38BDB6
:104D300038B504460020009004F0010020B19DF831
:104D4000000040F03000009004F0020020B19DF817
:104D5000000040F00C00009004F0040020B19DF829
:104D6000000040F0030000906A4601214FF4A47057
:104D700001F094FD38BD38B50446012C01DA012458
:104D800002E0042C00DD0424601EC0B200906A46DC
:104D9000012140F24F1001F081FD38BD2DE9FC47A3
:104DA00006460F4606F0070010B1B7F5C86F03DDE1
:104DB0004FF0FF30BDE8FC87384602F0DDFD81464C
:104DC000594902F08FFC8046684600F015FE9DF8B8
:104DD0000000022806D0042816D0082826D0102863
:104DE00048D135E04FF08D41404602F00DFE81463E
:104DF00002F08AFD84B24D49404602F005FE81462C
:104E000002F082FD85B238E04FF08C41404602F05E
:104E1000FBFD814602F078FD84B24549404602F030
:104E2000F3FD814602F070FD85B226E04FF08B4124
:104E3000404602F0E9FD814602F066FD84B23D493C
:104E4000404602F0E1FD814602F05EFD85B214E0CD
:104E50004FF08A41404602F0D7FD814602F054FDF2
:104E600084B23549404602F0CFFD814602F04CFD48
:104E700085B202E04FF0FF309CE700BF20128DF8B2
:104E80000400E0B28DF8050028128DF80600E8B2A3
:104E90008DF8070006F00100A0B101AA02214FF42D
:104EA000EA7001F0FBFC10B14FF0FF3082E70DF12A
:104EB000060202214FF4927001F0F0FC10B14FF0A5
:104EC000FF3077E706F00200A0B101AA02214FF4FB
:104ED000EC7001F0E3FC10B14FF0FF306AE70DF128
:104EE000060202214FF4947001F0D8FC10B14FF08B
:104EF000FF305FE706F00400A0B101AA02214FF4E1
:104F0000EE7001F0CBFC10B14FF0FF3052E70DF125
:104F1000060202214FF4967001F0C0FC10B14FF070
:104F2000FF3047E7002045E70000484300004046C7
:104F30000000C045000040450000C04438B50446AC
:104F4000052094FBF0F085B228128DF80000E8B23D
:104F50008DF801006A4602214FF4EF7001F09EFCCB
:104F600038BD38B50446052094FBF0F085B2281210
:104F70008DF80000E8B28DF801006A4602214FF476
:104F8000ED7001F08BFC38BD00BF054A128802F0BD
:104F90004002002AF9D0C2B2014B1B1D1A80704793
:104FA000003801407CB5054628494968087801ABBE
:104FB00004220D21FDF756F808B107207CBD9DF8AD
:104FC0000700C0F301109DF8041001F0E00140EA71
:104FD000E1008DF800009DF80700C0F381009DF806
:104FE000051001F0E00140EAE1008DF801009DF8B4
:104FF000070000F003009DF8061001F0E00140EA10
:10500000E1008DF8020000241CE01DF8040018B92E
:10501000002045F8240013E00D4845F8240006E080
:1050200055F824000B4902F0EFFC45F824001DF868
:105030000400401EC0B20DF804000028F0D100BFEB
:10504000601CC4B2032CE0DB0020B7E700000020A6
:105050007B14AE3E1D5A843F2DE9F04F87B00546C4
:105060000C46914601208DF8100000208DF81100AB
:10507000FE4A1268917CFD4A5268107804AB022205
:10508000FDF796F820B14FF0FF3007B0BDE8F08F84
:10509000C820FFF753F900208DF81000F34A12687A
:1050A000D17BF24A5268107804AB0122FDF780F8F8
:1050B00010B14FF0FF30E8E7EC4A12685179EB4A43
:1050C0005268107804AB0122FDF772F810B14FF06E
:1050D000FF30DAE7E54A1268917CE44A52681078BA
:1050E00004AB0122FDF764F810B14FF0FF30CCE7BC
:1050F000DE4A1268D17DDD4A5268107804AB012285
:10510000FDF756F810B14FF0FF30BEE7D74A1268EE
:105110001179D64A5268107804AB0122FDF748F89D
:1051200010B14FF0FF30B0E70C208DF81000CF4ADF
:1051300012681179CD4A5268107804AB0122FDF74C
:1051400037F810B14FF0FF309FE70F20FFF7F6F868
:10515000C648806A407A8DF81000C44A1268917877
:10516000C24A5268107804AB0122FDF721F810B151
:105170004FF0FF3089E7BD48806A007A8DF8100053
:10518000BA4A12685178B94A5268107804AB0122C1
:10519000FDF70EF810B14FF0FF3076E7B9F1000FD0
:1051A00007D0B248806A807A40F0E0008DF81000A5
:1051B00004E0AE48806A807A8DF81000AB4A12682D
:1051C0009179AA4A5268107804AB0122FCF7F0FFEB
:1051D00010B14FF0FF3058E7B9F1000F07D0A348E6
:1051E000806AC07A40F0E0008DF8100003E0A0482B
:1051F000C07A8DF810009D4A1268D1799B4A526896
:10520000107804AB0122FCF7D3FF10B14FF0FF3050
:105210003BE7B9F1000F02D0C820FFF78FF840201C
:105220008DF81000914A12681179904A52681078EE
:1052300004AB0122FCF7BCFF10B14FF0FF3024E7B4
:1052400078208DF81000894A12685179874A52688F
:10525000107804AB0122FCF7ABFF10B14FF0FF3028
:1052600013E783498889FFF769F800208DF810005B
:105270007E4A126851797D4A5268107804AB012247
:10528000FCF796FF10B14FF0FF30FEE6774A126848
:10529000917A764A5268107804AB0222FCF7E2FE5B
:1052A00010B14FF0FF30F0E69DF811009DF810109E
:1052B00040EA012B0C209BFBF0F0C6B20020A86056
:1052C00068602860A06060602060824665E0674A90
:1052D0001268D17A654A5268107804AB0C22FCF748
:1052E000C1FE10B14FF0FF30CFE69DF811009DF8E0
:1052F000101040EA012000B2ADF808009DF813003C
:105300009DF8121040EA012000B2ADF80A009DF8A5
:1053100015009DF8141040EA012000B2ADF80C0011
:10532000BDF90810206808442060BDF90A106068C3
:1053300008446060BDF90C10A0680844A0609DF8A6
:1053400017009DF8161040EA012000B2ADF80000E9
:105350009DF819009DF8181040EA012000B2ADF840
:1053600002009DF81B009DF81A1040EA012000B2CF
:10537000ADF80400BDF90010286808442860BDF9A4
:105380000210686808446860BDF90410A868084401
:10539000A8600AF1010000F0FF0AB24597DB34482B
:1053A000D0F800C02868C117090441EA1041070479
:1053B000624600233846FAF73AFF32460023CDE929
:1053C0000201FAF734FF28602948D0F800C0686865
:1053D000C117090441EA1041070462460023384618
:1053E000FAF725FF32460023CDE90201FAF71FFF45
:1053F00068601F48D0F800C0A868C117090441EAD6
:1054000010410704624600233846FAF710FF32467F
:105410000023CDE90201FAF70AFFA8601448D0F88A
:1054200004C02168C817000440EA11480F0462460E
:10543000002338464146FAF7FAFE32460023CDE90A
:105440000201FAF7F4FE20600948D0F804C0606851
:10545000C117090441EA1041070462460023384697
:10546000FAF7E5FE3246002304E0000000000020C9
:105470000C7E0008CDE90201FAF7D9FE6060114800
:10548000D0F804C0A068C117090441EA104107041C
:10549000624600233846FAF7CAFE32460023CDE9B9
:1054A0000201FAF7C4FEA060A068002804DDA0682D
:1054B000A0F58030A06003E0A06800F58030A06017
:1054C0000020E2E50C7E00082DE9FC5F06460F4651
:1054D00000253D494968087801AB03220D21FCF7FE
:1054E000C1FD10B10720BDE8FC9F9DF8040000F04D
:1054F0001F008DF804009DF8050000F01F008DF8D6
:1055000005009DF8060000F01F008DF8060000243D
:1055100056E056F8240057F82410A0EB010BBBF11D
:10552000000F01DB594601E0CBF10001084602F013
:105530000BFA4FF08F41009002F0D4F8814601A899
:10554000005D68B32149086802F016FA834659469F
:105550001F4802F0C7F8804604E01E49404602F0AA
:1055600053FA804601A8005D401EC0B201A908554B
:105570000028F2D14146484602F0B4F883464FF085
:105580007E5102F03FFB82462AF0004B0F488169B2
:10559000584602F005FB12D20120A04005430EE060
:1055A0000A480169484602F0FBF905D307484169FA
:1055B000484602F0F5FA02D20120A0400543641CDF
:1055C000032CA6DB28468EE7000000200C7E000896
:1055D00000B04C4554E3853F10B50446204600F02A
:1055E0000FF80346E01C00F00BF843EAC00083B25A
:1055F000A01D00F005F843EA801083B2184610BDE4
:10560000014691F90020002A01DD00201EE091F9F9
:105610000020002A01DA042018E091F90120002A74
:1056200001DD012012E091F90120002A01DA0520B4
:105630000CE091F90220002A01DD022006E091F938
:105640000220002A01DA062000E0072070474FF40C
:10565000A060FCF7A1FEFEF74FFE4FF4165001F0DC
:1056600015FA0220FCF79CFA0120FCF799FAFCF7E6
:1056700011FBFCF7ADFAFCF7B1F8FCF797FEFCF76D
:1056800045FFFCF7F1FFFCF793FCFCF72DFEFDF75F
:10569000DFFFFEF75DF8FCF7BDFDFCF7D1FDFEF77F
:1056A00027F805E0FCF7A8FAFDF748FAFCF710F92F
:1056B000F8E7704770B50446002624F00104184846
:1056C00090F8240008B1002070BD1548807A10B908
:1056D0004FF0FF30F8E71248057C807A20401049EF
:1056E00008740846007CA04202D04FF0FF3600E06C
:1056F000002614B90A48007D18B1012001F058F9BC
:1057000002E0002001F054F93CB100F0B3FC20B1FC
:10571000034805744FF0FF30D6E73046D4E7000069
:10572000000000202DE9F04F9BB004460D461646C0
:105730001F464FF07E584FF000094FF0000A4FF01F
:10574000000B14A815A91AAB10AACDE9001016A9D0
:1057500018A8FEF7C1FF18B101201BB0BDE8F08FFB
:10576000BDF8540000F4807000287CD0109802F03E
:10577000EBF84FF09D410F9001F0B4FF8046119877
:1057800002F0E2F84FF09D410F9001F0ABFF81462F
:10579000129802F0D9F84FF09D410F9001F0A2FF4E
:1057A0008246139802F0D0F84FF09D410F9001F01F
:1057B00099FF834641464FF0804002F025F951465B
:1057C000069002F021F9494608904FF0404002F05F
:1057D0001BF95946069002F017F90790089901F055
:1057E00013FF099001F0E4FECDE90A01FEF74AFA41
:1057F0004FF06632574BCDE90C0101F0FFFBCDE9CC
:105800000E0101F0A9F9206051464FF0804002F0EE
:10581000FBF85146039002F0F7F8494605904FF027
:10582000404002F0F1F84946039002F0EDF8049090
:10583000059902F0E7F94FF07E51069001F0E4FE81
:10584000079001F0B5FECDE90A0141464FF08040D6
:1058500002F0DAF84946049002F0D6F85146069074
:105860004FF0804000E06AE002F0CEF85946049024
:1058700002F0CAF80590069901F0C6FE079001F003
:1058800097FECDE90801DDE90A23FEF743FC4FF05E
:105890006632304BCDE90C0101F0B0FBCDE90E01D1
:1058A00001F05AF928605946584602F0ADF85146C1
:1058B0000690504602F0A8F849460490484602F087
:1058C000A3F841460290404602F09EF801900299EA
:1058D00001F09AFE0390049902F094F9059006995C
:1058E00002F090F9079001F063FECDE90A015946F4
:1058F000404602F089F851460590484602F084F887
:105900000490059901F080FE4FF08041069002F06E
:105910007BF8079001F04CFECDE90801DDE90A2390
:10592000FEF7F8FB4FF066320A4BCDE90C0101F0AF
:1059300065FBCDE90E0101F00FF9306001E00220B6
:105940000BE7BDF862003880BDF864102498018030
:10595000002002E766A64C4070B50024FCF708FA68
:1059600000F024F9002840D1782000F02FFFC4B2C5
:105970000CB1012070BD7820FFF79CFEC4B20CB1C1
:105980000220F7E7642000F0D3FEC4B20CB103207C
:10599000F0E7FEF795FEC4B20CB10420EAE7154823
:1059A000FFF71AFE0546FFF7E5F8C4B20CB1052073
:1059B000E0E740F27310FEF72BFDC4B20CB10620F5
:1059C000D8E76420FFF706F8C4B20CB10720D1E78E
:1059D00000F0A4FF04460CB10820CBE7012000F042
:1059E000A3FDC4B21CB10920C4E70A20C2E700200D
:1059F000C0E700002C00002001461148407A30B179
:105A0000012807D0022808D003280CD108E0022082
:105A100008700BE00420087008E00820087005E01A
:105A20001020087002E04FF0FF30704700BF0448BC
:105A3000C07C18B108784006000E08700020F4E71A
:105A40000000002001461348407A30B1012808D0F8
:105A500002280AD0032810D10BE04FF480400880C0
:105A60000EE041F69C7008800AE04FF480500880F8
:105A700006E04FF40060088002E04FF0FF3070470E
:105A800000BF0448C07C10B1088840100880002086
:105A9000F5E700000000002001460248007C087085
:105AA000002070470000002001460F48007A30B106
:105AB000012807D0022809D003280FD10AE0FA20D4
:105AC00008800EE04FF4FA7008800AE04FF47A7014
:105AD000088006E04FF4FA60088002E000200880A9
